:020000040800F2
:10000000B80D002045010008112A0008132A000835
:10001000172A00081B2A00081F2A000800000000F9
:10002000000000000000000000000000232A00087B
:10003000252A000800000000272A0008DF3A0008EF
:100040005F0100085F0100085F0100085F01000810
:100050005F0100085F010008253A00085F01000801
:100060005F0100085F0100085F0100085F010008F0
:100070005F0100085F0100085F0100085F010008E0
:100080005F0100085F0100085F0100085F010008D0
:100090005F0100085F0100085F0100085F010008C0
:1000A0005F0100085F0100085F0100085F010008B0
:1000B0005F0100082B5C00085F0100085F01000879
:1000C0005F0100085F0100085F0100085F01000890
:1000D0005F010008453900088D5F00085F010008D6
:1000E0005F0100085F0100085F0100085F01000870
:1000F0005F0100085F0100085F0100085F01000860
:100100005F0100085F0100085F0100085F0100084F
:100110005F0100085F010008B54A00085F010008A0
:100120005F0100085F0100085F0100085F0100082F
:10013000DFF80CD006F0ECFA00480047A1290008CF
:10014000B80D00200648804706480047FEE7FEE756
:10015000FEE7FEE7FEE7FEE7FEE7FEE7FEE7FEE777
:10016000072B00083101000831490143314A116071
:10017000704770B5002100230F22C47804B32D4CC2
:10018000246804F4E064C4F5E064210AC1F10403C6
:10019000CA40447804FA03F18478144021430901E9
:1001A000254C0678A155047804F01F050124AC40C5
:1001B00005786D11AD0005F1E025C5F8004109E0B5
:1001C000047804F01F050124AC401C4D067876111C
:1001D00045F8264070BD1A4A0A400243154B1B1FC2
:1001E0001A60704739B1134A121D12680243114B4D
:1001F0001B1D1A6006E00F4A121D126882430D4B48
:100200001B1D1A607047042808D14FF0E0210969CE
:1002100041F004014FF0E022116107E04FF0E021CE
:10022000096921F004014FF0E022116170470000DC
:100230000000FA050CED00E000E400E080E100E0E1
:1002400080FFFF1F002044490860091D0860091D48
:100250000860091D086041483F4914310860704733
:1002600000213D498279002A3AD00A461268036883
:100270009A430B461A600A1D126803689A430B1DC5
:100280001A60027911440A6803681A430A60324A04
:100290000832126803689A432F4B08331A601A1DFC
:1002A000126803689A432C4B0C331A604279102A67
:1002B0000ED11A1F126803681A43274B08331A60BD
:1002C0001A1D126803681A43234B0C331A600DE0A1
:1002D0002149427911440A6803681A430A6005E01B
:1002E000027911440A6803689A430A607047002142
:1002F000016001710C214171002181717047164923
:10030000103109680143144A1032116070470146E8
:100310000020114A143212680A400AB1012000E09C
:10032000002070470C4914310860704701460020D6
:100330000022094B1B6803EA0102074B14331B68B8
:100340000B4013B10AB1012000E0002070470249C0
:10035000143108607047000000040140FFFF0F00E7
:1003600030B943F2DB028100A1F1C0410A6005E02F
:1003700043F2D2028100A1F1C0410A606FF07042E5
:10038000411C8900A1F1C0410A608100A1F1C04176
:10039000C1F80421704710280AD118214FF02042DB
:1003A0001166402151664FF0FC319166D16610E034
:1003B0001821F74A116040214FF02042C2F8841002
:1003C0004FF0FC31F24A083211604FF02042C2F87F
:1003D0008C1070471820EE49203108600020090673
:1003E000C1F8A4004FF0FC30E94928310860091D2C
:1003F0000860091D08607047D0E901121143C26806
:100400001143026911434269114382691143C26970
:100410001143026A1143426A1143826A1143C26A5C
:100420001143026B114302689200A2F1C0421160B5
:10043000816808290BD101688900A1F1C0410968D0
:1004400041F0400201688900A1F1C0410A60416B9E
:100450000968426B526841EA0211426B926841EAB4
:100460000221426B928941EA0241426B128A41EABF
:100470000251426B127D41EA0261426B9269114363
:100480000268521C9200A2F1C0421160C16AB1F52B
:10049000804F1BD1816B0968826B526841EA02115F
:1004A000826B926841EA0221826B128A41EA025110
:1004B000826B127D41EA0261826B9269114302688C
:1004C0009200A2F1C042C2F8041107E06FF070423E
:1004D00001688900A1F1C041C1F80421704730B51D
:1004E000002100220023446844F0080485682C435E
:1004F000C5682C4305692C43456944EA4524856950
:1005000044EA4531C4692468C5696D6844EA052434
:10051000C5692D8944EA0544C5692D7B44EA056215
:10052000046A2468056A6D6844EA0524056A2D8911
:1005300044EA0544056A2D7B44EA05630468102CEF
:1005400005D14FF020442166A266E36608E0904C96
:1005500021604FF02044C4F888208D4C0C34236077
:1005600030BD016841F01001426841EA42218268D1
:1005700041EA4231864A20321160C1680968C26886
:10058000526841EA0221C268128941EA0241C26806
:10059000127B41EA02617E4A2832116001690968D2
:1005A0000269526841EA02210269128941EA024164
:1005B0000269127B41EA0261754A2C32116041697D
:1005C00009684269526841EA02214269128941EA96
:1005D00002414269127B41EA02614FF02042C2F8B7
:1005E000B01070470021016002214160002181604C
:1005F000C160016141618161C16101624FF480515B
:100600004162490081620021C16201630F21426B96
:100610001160426B5160FF21426B91600F21426B70
:10062000D160426B1161426B51610021426B91615B
:100630000F21826B1160826B5160FF21826B916090
:100640000F21826BD160826B1161826B516100213D
:10065000826B9161704710210160002141608160CF
:10066000C160016141618161FC21C2691160C2699F
:100670005160C2699160C269D160026A1160026A08
:100680005160026A9160026AD16070470021016086
:1006900041608160FC21C2681160C2685160C2681B
:1006A0009160C268D160026911600269516002699B
:1006B00091600269D160426911604269516042698A
:1006C00091604269D160704751B18200A2F1C0428D
:1006D000126842F001038200A2F1C042136009E0F7
:1006E0008200A2F1C04212682A4B1A408300A3F193
:1006F000C0431A60704799B1102808D14FF02042CA
:10070000126E42F004024FF020431A661DE0204AA8
:10071000126842F004024FF02043C3F8802014E036
:10072000102809D14FF02042126E1A4BDB1E1A40DE
:100730004FF020431A6608E0154A1268154BDB1E7D
:100740001A404FF02043C3F88020704748B1104949
:100750002031096841F004014FF02042C2F8A01096
:1007600009E00B49203109680A4AD21E11404FF0B6
:100770002042C2F8A0107047B9B110280CD14FF038
:100780002042126E42F040024FF020431A661FE0F2
:10079000800000A0FEFF0F00724A126842F0400283
:1007A0004FF02043C3F8802012E0102808D14FF00A
:1007B0002042126E6C4B1A404FF020431A6607E03D
:1007C000684A1268684B1A404FF02043C3F88020F3
:1007D000704701460020102903D14FF02042506F8E
:1007E00002E0604A14321068704710B5F2B1102868
:1007F00007D14FF020435B6E0B434FF020446366FC
:1008000032E0B0F5807F08D1564B1B1D1B680B43AF
:100810004FF02044C4F8843026E0524B24331B6848
:100820000B434FF02044C4F8A4301DE0102807D13A
:100830004FF020435B6E8B434FF02044636613E020
:10084000B0F5807F08D1474B1B1D1B688B434FF0D1
:100850002044C4F8843007E0424B24331B688B43A8
:100860004FF02044C4F8A43010BD10B5024600205B
:100870000023102A03D14FF02044636E09E0B2F543
:10088000807F03D1374C241D236802E0354C24348B
:10089000236803EA01040CB1012000E0002010BD30
:1008A000102807D14FF02042526E8A434FF0204368
:1008B0005A6613E0B0F5807F08D12A4A121D1268EB
:1008C0008A434FF02043C3F8842007E0254A2432AE
:1008D00012688A434FF02043C3F8A420704770B5D4
:1008E00002460020002300240025102A03D14FF0E7
:1008F0002046736E09E0B2F5807F03D1194E361D94
:10090000336802E0174E2436336803EA010403EA31
:10091000D10514B10DB1012000E0002070BD1028F8
:1009200008D14FF02042526E22EAD1024FF020430C
:100930005A6615E0B0F5807F09D10A4A121D126887
:1009400022EAD1024FF02043C3F8842008E0054A90
:100950002432126822EAD1024FF02043C3F8A420C7
:1009600070470000800000A0BFFF0F0010B50446D4
:10097000CC48844208D10121042000F02FFD002141
:10098000042000F02BFD46E0C748844208D1012135
:10099000082000F023FD0021082000F01FFD3AE0B0
:1009A000C248844208D10121102000F017FD002127
:1009B000102000F013FD2EE0BD48844208D1012133
:1009C000202000F00BFD0021202000F007FD22E098
:1009D000B848844208D10121402000F0FFFC0021EA
:1009E000402000F0FBFC16E0B348844208D101210E
:1009F000802000F0F3FC0021802000F0EFFC0AE0F2
:100A0000AE48844207D10121801500F0E7FC0021A7
:100A1000A01500F0E3FC10BD10B50121084600F060
:100A2000DDFC0021012000F0D9FC10BD2DE9F041D2
:100A3000024600250026002000230024002791F80C
:100A400003C00CF00F0591F803C00CF0100CBCF1C2
:100A5000000F03D091F802C04CEA050591F800C0E0
:100A6000BCF1000F31D0146800202BE04FF0010CD6
:100A70000CFA00F3B1F800C00CEA03069E4220D144
:100A800083004FF00F0C0CFA03F7BC4305FA03FC8C
:100A90004CEA040491F803C0BCF1280F06D14FF0D2
:100AA000010C0CFA00FCC2F814C00AE091F803C073
:100AB000BCF1480F05D14FF0010C0CFA00FCC2F854
:100AC00010C0401C0828D1D31460B1F800C0BCF19C
:100AD000FF0F34DD546800202EE000F1080C4FF0C9
:100AE000010808FA0CF3B1F800C00CEA03069E42B4
:100AF00021D183004FF00F0C0CFA03F7BC4305FA29
:100B000003FC4CEA040491F803C0BCF1280F05D1A2
:100B100000F1080C08FA0CF8C2F8148091F803C030
:100B2000BCF1480F07D100F1080C4FF0010808FA9A
:100B30000CF8C2F81080401C0828CED35460BDE8E1
:100B4000F0814FF6FF710180022181700421C17094
:100B500070470246002093680B400BB1012000E073
:100B6000002070470146886880B270470246002026
:100B7000D3680B400BB1012000E000207047014614
:100B8000C86880B2704701617047416170470AB11F
:100B9000016100E041617047C16070474FF48032ED
:100BA0000A4382618161826182698269704702467B
:100BB0000020434B18684FF68073184040EA02103B
:100BC00008433F4B186070473E49C8617047F0B515
:100BD0000A46002300240021002500F00046B6F15B
:100BE000004F02D1364EF16901E0354E7168C0F315
:100BF000034583B200F44016B6F5401F08D121F03A
:100C000070612F4E766826F070662D4F7E6012E080
:100C100000F48016B6F5801F06D1032606FA05F407
:100C2000A14341F0706106E0460D360103FA06F675
:100C3000B14341F0706122B1460D360103FA06F668
:100C4000314300F00046B6F1004F02D11C4EF16175
:100C500001E01B4E7160F0BD30B500228B071C0F08
:100C60000F2303FA04F2164B08338C1053F8243088
:100C70009343134C08348D1044F8253023468C10D0
:100C800053F824308C07240F00FA04F423430C4C4F
:100C900008348D1044F8253030BD0A49DC31086035
:100CA0007047000000080140000C014000100140A6
:100CB0000014014000180140001C014000200140C8
:100CC000000001400000204210B50446F74884426D
:100CD00009D10121480500F08EFB00214FF40010DE
:100CE00000F089FB08E00121880500F084FB002169
:100CF0004FF4800000F07FFB10BD2DE9F04385B07C
:100D000004460D460026B1460427DFF8A483A688D2
:100D10004FF6C0700640684600F0D9FADDF808804A
:100D2000E448B8FBF0F01FFA80F946EA0906A6800D
:100D300020884FF6FE71084020800026DE49286892
:100D400088420CD828684000B8FBF0F087B2042F26
:100D500000DA04273E4309F10100208427E0E888F7
:100D60004BF6FF71884206D1286800EB4000B8FBC3
:100D7000F0F087B209E0286800EBC00101EB001039
:100D8000B8FBF0F087B247F48047C7F30B0008B90F
:100D900047F0010747F4004006434FF4967009FB03
:100DA00000F04FF47A7190FBF1F0401C2084A68390
:100DB000208840F00100208026884FF6F53006405C
:100DC000A8886989084306432680A8892989084399
:100DD000208105B0BDE8F08341F288310160002137
:100DE00081804BF6FF71C1800021018141814FF468
:100DF00080418181704721B1028842F00102028066
:100E000004E002884FF6FE731A400280704721B159
:100E1000828842F40062828004E082884FF2FF738D
:100E20001A408280704721B1828842F480528280C9
:100E300004E082884EF6FF731A408280704721B129
:100E4000028842F48072028004E002884FF6FF6359
:100E50001A400280704721B1028842F40072028079
:100E600004E002884FF6FF531A400280704721B118
:100E7000028842F48062028004E002884FF6FF3369
:100E80001A40028070470A46002181894FF601739B
:100E9000194002F0FE0319438181704721B1828914
:100EA00042F00102828104E082894FF6FE731A400B
:100EB0008281704721B1028842F04002028004E042
:100EC00002884FF6BF731A40028070471AB18388B8
:100ED0000B43838002E083888B43838070470182C9
:100EE00070470146088AC0B2704712B141F0010153
:100EF00002E04FF6FE7319400182704708B50246C2
:100F0000002000900092009808440090009800880B
:100F100008BD21B1028842F40042028003E0028849
:100F2000C2F30E0202807047B1F5006F04D102884F
:100F300042F40062028004E002884FF2FF731A401C
:100F400002807047B1F5005F04D1028842F400527C
:100F5000028004E002884DF6FF731A400280704759
:100F600021B1028842F48052028004E002884EF6E9
:100F7000FF731A4002807047B1F5006F04D10288F8
:100F800042F40062028004E002884FF2FF731A40CC
:100F90000280704721B1028842F02002028004E002
:100FA00002884FF6DF731A40028070470146088BB3
:100FB0000012704721B1028842F01002028004E062
:100FC00002884FF6EF731A400280704721B90288F9
:100FD00042F08002028004E002884FF67F731A40DC
:100FE00002807047B1F5804F05D0828B4BF6FF73BE
:100FF0001A40828303E0828B42F4804282837047EE
:1010000070B502460024002500230020958A138B2A
:101010001B0445EA030626F07F4404EA01068E42DB
:1010200001D1012000E0002070BD10B50146002074
:10103000002300228B8A0A8B120443EA020424F064
:101040007F4010BD0CB502460020002301930093A1
:1010500000920B0F019321F07F41019B1BB1009B7C
:101060001433009303E0090C009B18330093009B9A
:101070001B680B400BB1012000E000200CBD0022DA
:1010800021F07F42D3438382704730B5024600206F
:101090000023948801F0E06504EA154321F07F41C4
:1010A000948A0C4054B14BB1012008E00054004038
:1010B00000127A0040420F00A0860100002030BDDF
:1010C000002221F07F42D34383827047DF480068CB
:1010D00040F00100DD49086008464068DC490840EE
:1010E000DA49486008460068DA490840D74908608C
:1010F0000846006820F4802008600846406820F414
:10110000FE0048604FF41F0088607047CF490968AF
:1011100021F48031CD4A11601146096821F4802103
:101120001160B0F5803F03D0B0F5802F0ED106E0FE
:10113000C649096841F48031C44A116007E0C349D7
:10114000096841F4A021C14A116000E000BF00BF5E
:10115000704710B501460022002300204A11012AE1
:1011600002D1BA4C236806E0022A02D1B74C236AA6
:1011700001E0B64C636A01F01F02012494401C4058
:101180000CB1012000E0002010BD38B50020009017
:101190000024002500BF3120FFF7DBFF0546009843
:1011A000401C00900098B0F5A06F01D0002DF2D047
:1011B0003120FFF7CEFF08B1012400E000242046D3
:1011C00038BD01460020A14A106820F0F80040EA2E
:1011D000C10010607047A0490860704702460020B7
:1011E0009A4B586820F47C1042EA01031843974B4D
:1011F0005860704798490866704701460020934A36
:10120000506820F003000843506070478F484068E2
:1012100000F00C007047014600208C4A506820F016
:10122000F00008435060704701460020874A50682C
:1012300020F4E06008435060704701460020834A74
:10124000506820F4605040EAC1005060704729B1F6
:101250007E4A527A02437D4B5A7204E07B4A527AAC
:1012600082437A4B5A7270477B49D8310860704785
:1012700001460020754A506820F440400843506001
:1012800070470021714A20321170704A82F8201094
:10129000012802D004280AD104E001216B4A20323F
:1012A000117005E00521694A2032117000E000BF8D
:1012B00000BF70476949086070476449096A014383
:1012C000624A11627047654944390860704730B519
:1012D00000210022002400235C4D6D6805F00C0104
:1012E00021B1042905D0082923D105E05C4D056012
:1012F00022E05B4D05601FE0544D6D6805F47012EF
:10130000524D6D6805F48034022505EB92421CB9FC
:10131000544D554305600BE04C4D6D6805F40035A8
:101320001DB1504D5543056002E04D4D55430560DC
:1013300002E04B4D056000BF00BF444D6D6805F0F5
:10134000F0010909484D6B5C0568DD4045603F4D83
:101350006D6805F4E061090A434D6B5C4568DD404A
:1013600085603A4D6D6805F46051C90A3E4D6B5C6D
:101370004568DD40C560354D6D6805F44041890B19
:101380003A4D6B5CC568B5FBF3F5056130BD29B11D
:101390002E4A526902432D4B5A6104E02B4A52698E
:1013A00082432A4B5A61704729B1284A9269024305
:1013B000264B9A6104E0254A92698243234B9A6145
:1013C000704729B1214AD2690243204BDA6104E017
:1013D0001E4AD26982431D4BDA61704729B11B4A0C
:1013E000D2680243194BDA6004E0184AD26882439B
:1013F000164BDA60704729B1144A12690243134B45
:101400001A6104E0114A12698243104B1A61704755
:1014100012494039086070470F49C86470470B494A
:10142000C87170470948406A40F0807007494862B7
:10143000704701460020054A92680A400AB101201F
:1014400000E0002070470149887270470010024098
:101450000000FFF8FFFFF6FE000042428004424217
:1014600000127A0000093D0000000020100000205A
:1014700010B50446BE48844208D101218014FFF70C
:10148000ADFF0021A014FFF7A9FF16E0B948844280
:1014900008D101210014FFF7AEFF00212014FFF74F
:1014A000AAFF0AE0B448844207D10121C013FFF724
:1014B000A2FF0021E013FFF79EFF10BD10B5002230
:1014C000028802F441520B884C8823438C882343C2
:1014D000CC8823430C8923434C8923438C892343A1
:1014E000CC8923431A430280838B4FF2FF7423403D
:1014F00083830B8A038210BD2DE9F04F85B005462A
:101500000C464FF0000902274FF000084FF0010B86
:101510000026B246A88B4FF240010840A883022063
:101520002884B5F81C90A068022801D100BF38E0DB
:10153000A08810B94FF0010B01E04FF0020B8D486D
:10154000854200D100E000BF6846FFF7C0FEDDF82D
:1015500000A0E088B0F5007F0AD14FEA1A2000EB26
:1015600080004000A168B0FBF1F0401D86B20BE0A6
:101570004FEA4B10BAFBF0F000EB80004000A1688E
:10158000B0FBF1F0401D86B20A20B6FBF0F606F083
:101590000108A6EB0800C0F34F074FF6FF7000EA02
:1015A0000828022F01DBFF2F02DD02274FF0000881
:1015B000E08840EA080038432884A088A1890843CD
:1015C000618808432188084340F4006040EA090923
:1015D000A5F81C9005B0BDE8F08F00210180418086
:1015E0008180C180018141818181C1810721018286
:1015F00070470021018041808180C180022181608B
:1016000000218181704721B1028842F040020280AE
:1016100004E002884FF6BF731A400280704721B180
:10162000828B42F48062828304E0828B4FF6FF3328
:101630001A408283704730B5002400230C11012525
:10164000A540ABB21AB185881D43858002E085882C
:101650009D43858030BD1AB183880B43838002E0AF
:1016600083888B43838070478181704701468889D6
:1016700070474FF6FF62914204D0028842F48072B4
:10168000028004E002884FF6FF631A400280704730
:1016900021B1828842F00402828004E082884FF601
:1016A000FB731A408280704702884FF2FF731A4022
:1016B000028002880A4302807047018841F4805109
:1016C0000180704721B1028842F40052028004E098
:1016D00002884DF6FF731A400280704702460020D0
:1016E000012901D0108B00E0908A70470146088ADA
:1016F0007047B1F5804F04D1028842F480420280E5
:1017000004E002884BF6FF731A40028070470246DD
:10171000002013890B400BB1012000E0002070472E
:10172000CA4302817047F0B502460020002400231E
:10173000002501F00F070126BE40B4B20B110126AF
:101740009E40B3B2968806EA03051689264016B174
:101750000DB1012000E00020F0BD10B5002201F025
:101760000F040123A3409AB2D343038110BD0000AC
:101770000030014000380040003C004010B50446F5
:10178000FE48844208D10121C014FFF727FE002142
:10179000E014FFF723FEC4E0B4F1804F08D101212B
:1017A0000846FFF728FE00210120FFF724FEB8E0DD
:1017B000F348844208D101210220FFF71CFE0021DA
:1017C0000220FFF718FEACE0EE48844208D1012168
:1017D0000420FFF710FE00210420FFF70CFEA0E01C
:1017E000E948844208D101210820FFF704FE0021C6
:1017F0000820FFF700FE94E0E448844208D101216C
:101800001020FFF7F8FD00211020FFF7F4FD88E01D
:10181000DF48844208D101212020FFF7ECFD0021A0
:101820002020FFF7E8FD7CE0DA48844208D101215E
:101830004014FFF7D3FD00216014FFF7CFFD70E0E7
:10184000D548844209D10121C804FFF7C7FD002112
:101850004FF40020FFF7C2FD63E0D048844209D175
:1018600001210805FFF7BAFD00214FF48010FFF7B2
:10187000B5FD56E0CA48844209D101214805FFF769
:10188000ADFD00214FF40010FFF7A8FD49E0C54869
:10189000844208D101214020FFF7ADFD0021402006
:1018A000FFF7A9FD3DE0C048844208D10121802016
:1018B000FFF7A1FD00218020FFF79DFD31E0BB482F
:1018C000844208D101218015FFF795FD0021A01564
:1018D000FFF791FD25E0B648844209D101210804B3
:1018E000FFF77CFD00214FF48030FFF777FD18E013
:1018F000B048844209D101214804FFF76FFD00215F
:101900004FF40030FFF76AFD0BE0AB48844208D18A
:1019100001218804FFF762FD00214FF48020FFF7CA
:101920005DFD10BD00220288944B98420ED0994B69
:1019300098420BD0B0F1804F08D0914B984205D01F
:10194000904B984202D0904B984204D14FF68F733F
:101950001A404B881A438D4B984207D08C4B9842C3
:1019600004D04FF6FF431A40CB881A4302808B887D
:1019700083850B880385814B98420BD0854B984219
:1019800008D08B4B984205D08A4B984202D08A4BA4
:10199000984201D10B7A038601238382704770B588
:1019A000002400220023058C4FF6FE763540058486
:1019B000028C8388048B4FF68F752C40B51E2C400B
:1019C0000D882C43751E2A400D892A434D882A43D1
:1019D0006A4DA8420BD06F4DA84208D0744DA84262
:1019E00005D0744DA84202D0734DA84213D14FF6D2
:1019F000F7752A404D892A434FF6FB752A408D889A
:101A00002A434FF6FF652B404FF6FF552B408D893B
:101A10002B43CD892B4383800483CD888586028424
:101A200070BD70B5002400220023058C4FF6EF76C0
:101A300035400584028C8388048B48F6FF752C4062
:101A40004FF6FF452C400D884FF6FF7606EA052538
:101A50002C434FF6DF752A400D8906EA05152A4307
:101A60004D8806EA05152A43444DA84202D0494D47
:101A7000A8421DD14FF67F752A404D894FF6FF765B
:101A800006EA05152A434FF6BF752A408D8806EAF7
:101A900005152A434FF6FF352B404FF2FF752B40BB
:101AA0008D8906EA85052B43CD8906EA85052B43FA
:101AB00083800483CD880587028470BD70B50024BF
:101AC00000220023058C4FF6FF6635400584028C0A
:101AD0008388848B4FF68F752C404FF6FC752C4015
:101AE0000D882C434FF6FF552A400D894FF6FF769F
:101AF00006EA05252A434D8806EA05252A431F4D97
:101B0000A84202D0234DA8421DD14FF2FF752A40B2
:101B10004D894FF6FF7606EA05252A434FF6FF3535
:101B20002A408D8806EA05252A434EF6FF752B408C
:101B30004DF6FF752B408D8906EA05152B43CD899F
:101B400006EA05152B4383808483CD88858702842C
:101B500070BD70B5002200230024058C4EF6FF7680
:101B600035400584038C8488828B48F6FF752A40B3
:101B70004FF6FF452A400D8820E00000002C014070
:101B80000004004000080040000C0040001000402D
:101B90000014004000340140004C0140005001405E
:101BA0000054014000180040001C0040002000408C
:101BB0000040014000440140004801404FF6FF76DC
:101BC00006EA05252A434DF6FF752B400D8906EAE6
:101BD00005352B434D8806EA05352B43FA4DA842BF
:101BE00002D0FA4DA84208D14BF6FF752C408D89E2
:101BF0004FF6FF7606EA85152C4384808283CD88D4
:101C0000A0F84050038470BD828B4FF2FF331A401E
:101C10008283828B4FF6FF7303EA01231A43828388
:101C20007047F0B50C461546002200210026078CAF
:101C30004EF6FF7C07EA0C070784828B018C4FF677
:101C4000FF7707EA043640F6FF473A404FF6FF7742
:101C500007EA05273A434FF6FF7707EA03373A4387
:101C6000D94FB8420ED0D94FB8420BD0B0F1804F07
:101C700008D0D74FB84205D0D64FB84202D0D64F81
:101C8000B84206D14DF6FF77394046F480573943C4
:101C900005E047F6FF57394044F4805739438283C3
:101CA0000184F0BD828B4FF6F3731A408283828BDE
:101CB0000A4382837047F0B50C4615460022002186
:101CC0000026078C4FF6FF6C07EA0C070784828B0F
:101CD000018C4FF6FF7707EA04264FF60C773A405F
:101CE0004FF6FF7707EA03172F433A43B64FB84240
:101CF0000ED0B64FB8420BD0B0F1804F08D0B44FE1
:101D0000B84205D0B34FB84202D0B34FB84206D163
:101D10004FF6FF57394046F48077394305E04FF2DC
:101D2000FF57394044F48077394382830184F0BD02
:101D3000028B4FF2FF331A400283028B4FF6FF7380
:101D400003EA01231A4302837047F0B50C46154697
:101D5000002200210026078C4FF6EF7C07EA0C07D3
:101D60000784028B018C4FF6FF7707EA041640F6D2
:101D7000FF473A404FF6FF7707EA03373A434FF6FB
:101D8000FF7707EA05273A438F4FB8420ED08F4FAF
:101D9000B8420BD0B0F1804F08D08D4FB84205D07B
:101DA0008C4FB84202D08C4FB84206D14FF6DF7745
:101DB000394046F01007394305E04FF65F77394068
:101DC00044F01007394302830184F0BD028B4FF6C3
:101DD000F3731A400283028B0A4302837047F0B503
:101DE0000C46154600220021068C4FF6FE773E4039
:101DF0000684028B018C4FF60C7632407E1C06EA7C
:101E000003162E433243704EB0420ED06F4EB04296
:101E10000BD0B0F1804F08D06D4EB04205D06D4E62
:101E2000B04202D06C4EB04206D14FF6FD76314042
:101E300044F00106314305E04FF6F576314044F0B9
:101E40000106314302830184F0BD70B505460C469E
:101E50005D4885420ED05D4885420BD0B5F1804F7C
:101E600008D05B48854205D05A48854202D05A487E
:101E7000854200D100E000BF208850B92389A288A4
:101E800061882846FFF7ABFFE1882846FFF79EFFF1
:101E900025E0208804280AD12389A2886188284661
:101EA000FFF753FFE1882846FFF742FF17E020883D
:101EB00008280AD12389A28861882846FFF7FBFEFB
:101EC000E1882846FFF7EEFE09E02389A2886188B1
:101ED0002846FFF7A6FEE1882846FFF795FE70BD6D
:101EE0002DE9F04105460C4600260127608808B917
:101EF000022600E00026A088012801D1022700E088
:101F000001272088A0B92389A28861882846FFF785
:101F100066FFE1882846FFF759FF23893A46314694
:101F20002846FFF712FFE1882846FFF701FF13E07C
:101F30002389A28861882846FFF707FFE1882846A1
:101F4000FFF7F6FE23893A4631462846FFF747FF5A
:101F5000E1882846FFF73AFFBDE8F0810A884B8800
:101F60001A438B881A43CB881A430B891A434B892F
:101F70001A438B891A43A0F8442070474FF6FF712B
:101F8000818000210180C180418001727047002161
:101F9000018041808180C180018141818181C18135
:101FA0007047002101804180012181800021C18092
:101FB000018170470021018041808180C1800181C1
:101FC0004181818170470000002C014000340140B4
:101FD0000004004000080040000C004021B10288CD
:101FE00042F00102028004E002884FF6FE731A40BC
:101FF0000280704731B1B0F8442042F40042A0F8AA
:10200000442005E0B0F84420C2F30E02A0F84420BA
:1020100070471AB183890B43838102E083898B4324
:10202000838170478182704741EA0203A0F84830FB
:1020300070471AB183890B43838102E083898B4304
:102040008381704701894FF6F87211400181704712
:102050000A46002101894FF68F731940114301810F
:10206000704730B504460D4629462046FFF7F0FF7D
:10207000208940F00700208130BD2DE9F041044661
:102080000D4616461F46602D06D13B4601223146BD
:102090002046FFF75AFE05E03B4601223146204626
:1020A000FFF79DFE29462046FFF7D2FF208940F02A
:1020B00007002081BDE8F08130B50C460021018980
:1020C000C9B24FF6FF7505EA032515432543294399
:1020D000018130BD2DE9F04105460E461746984670
:1020E000002443463A4631462846FFF7E5FF2C894F
:1020F0004FF6F870044044F007044FF68F70044028
:1021000044F070042C81BDE8F081F0B504460D4622
:1021100016461F463B46324629462046FFF7CCFF6F
:10212000208940F480402081F0BD01858282704783
:102130000A46002101884FF68F7319401143018030
:102140007047F0B50C4615461E46002100220023BC
:102150000189028B038C4FF6F877394021434FF603
:10216000FC473A4040F201173A434FF6DD773B40D7
:102170004FF6FF7707EA06172F433B43018102839F
:102180000384F0BD0A460021018B4FF68F7319407E
:102190001143018370470A460021018B48F6FF7303
:1021A00019404FF6FF7303EA022319430183704776
:1021B0000A460021818B4FF68F73194011438183AA
:1021C00070470A460021818B48F6FF7319404FF68D
:1021D000FF7303EA022319438183704721B1028808
:1021E00042F08002028004E002884FF67F731A40BA
:1021F0000280704721B1828842F00402828004E0AC
:1022000082884FF6FB731A408280704721B1828822
:1022100042F00802828004E082884FF6F7731A4089
:102220008280704721B1828842F00102828004E0FE
:1022300082884FF6FE731A40828070470A4600215A
:10224000018B4FF6F77319401143018370470A461B
:102250000021018B4FF2FF7319404FF6FF7303EA21
:1022600002231943018370470A460021818B4FF6F0
:10227000F77319401143818370470A460021818B0F
:102280004FF2FF7319404FF6FF7303EA022319431D
:10229000818370470A460021018B4FF6FB7319407A
:1022A0001143018370470A460021018B4FF6FF332B
:1022B00019404FF6FF7303EA022319430183704765
:1022C0000A460021818B4FF6FB731940114381832D
:1022D00070470A460021818B4FF6FF3319404FF6B5
:1022E000FF7303EA02231943818370470A460021E2
:1022F000018B4FF67F7319401143018370470A46E3
:102300000021018BC1F30E014FF6FF7303EA022394
:102310001943018370470A460021818B4FF67F7372
:1023200019401143818370470A460021818BC1F314
:102330000E014FF6FF7303EA0223194381837047AE
:102340000A460021018C4FF6FD73194011430184A8
:1023500070470A460021018C4FF6F773194011436C
:10236000018470470A460021018C4FF6DF73194043
:102370004FF6FF7303EA02131943018470470A46BC
:102380000021018C4FF67F7319404FF6FF7303EA6B
:1023900002131943018470470A460021018C4FF64D
:1023A000FF5319404FF6FF7303EA022319430184D8
:1023B00070470A460021018C4FF2FF7319404FF617
:1023C000FF7303EA02231943018470470A46002180
:1023D000018C4DF6FF7319404FF6FF7303EA023389
:1023E00019430184704730B5002301248C40A3B207
:1023F000048C9C430484048C02FA01F5ADB22C4396
:10240000048430BD30B5002304248C40A3B2048C76
:102410009C430484048C02FA01F5ADB22C4304847D
:1024200030BD70B503460020002418461830012541
:102430008D40ACB21D8CA5431D8409B1082909D17A
:1024400000EB6100056825F070050560056815431F
:1024500005600EE00D1FC5F34E052844056825F400
:10246000E045056005684FF6FF7606EA022635432B
:10247000056070BD21B1028842F00202028004E0D2
:1024800002884FF6FD731A400280704721B102881E
:1024900042F00402028004E002884FF6FB731A4007
:1024A0000280704721B1828842F08002828004E07D
:1024B00082884FF67F731A408280704702884FF6F9
:1024C000F7731A40028002880A43028070478288AC
:1024D0004FF68F731A40828082880A438280704749
:1024E00002894FF6F8731A40028102890A43028179
:1024F000704702894FF67F731A40028102890A43AE
:10250000028170478184704781857047818670475A
:102510000187704781877047A0F840107047028894
:102520004FF6FF431A40028002880A430280704738
:102530000146888E70470146088F70470146888F94
:1025400070470146B1F8400070470146888C7047DB
:102550000146088D704702460020138A0B400BB1DC
:10256000012000E000207047CA430282704730B566
:102570000246002000230024158A05EA01039589FC
:1025800005EA010413B10CB1012000E0002030BDC8
:10259000CA4302827047000010B50446FB488442DB
:1025A00009D101218803FEF719FF00214FF4804073
:1025B000FEF714FF32E0F648844209D101214804B5
:1025C000FEF719FF00214FF40030FEF714FF25E05D
:1025D000F048844209D101218804FEF70CFF002154
:1025E0004FF48020FEF707FF18E0EB48844209D142
:1025F0000121C804FEF7FFFE00214FF40020FEF782
:10260000FAFE0BE0E548844208D101210805FEF7F7
:10261000F2FE00214FF48010FEF7EDFE10BD2DE913
:10262000F04786B005460E460024A24600BFA146EC
:102630000027B08900B100BF2F462C8A4CF6FF70EE
:102640000440F08804432C82AC894EF6F310044019
:10265000B08831890843718908430443AC81AC8A4E
:102660004FF6FF400440B0890443AC8201A8FEF756
:102670002EFEC648874202D1DDF810A001E0DDF849
:102680000CA0A88900F4004040B10AEBCA0000EB9E
:102690000A1031684900B0FBF1F807E00AEBCA0004
:1026A00000EB0A1031688900B0FBF1F86420B8FB38
:1026B000F0F004012009642101FB1089A88900F4CD
:1026C000004040B1322000EBC900B0FBF1F000F057
:1026D0000700044308E0322000EB09106421B0FB3E
:1026E000F1F000F00F0004432C8106B0BDE8F08744
:1026F0004FF41651016000218180C18001810C21BD
:10270000418100218181704710B502460020108A66
:102710004FF2FF0318400B884C8823438C882343D7
:10272000CC8823431843108210BD002101804180D2
:102730008180C180704721B1828942F40052828138
:1027400004E082894DF6FF731A4082817047F0B52C
:102750000346002400260025002040F66A17B942EF
:1027600000D100BF1846C1F3421401F01F06012733
:1027700007FA06F5012C01D10C3004E0022C01D13E
:10278000103000E014301AB107682F43076002E0F0
:102790000768AF430760F0BD1AB1838A0B43838299
:1027A00002E0838A8B4383827047028A4FF6F0737C
:1027B0001A400282028A0A430282704782894FF2DB
:1027C000FF731A40828182890A438281704721B156
:1027D000828942F00202828104E082894FF6FD7311
:1027E0001A4082817047028A4FF6DF731A400282D4
:1027F000028A0A430282704721B1028A42F480426F
:10280000028204E0028A4BF6FF731A40028270478C
:10281000C1F308028280704701468888C0F308002F
:102820007047818941F0010181817047028BD2B2EA
:102830000283028B42EA012202837047028B02F478
:102840007F420283028B0A430283704721B1828A4E
:1028500042F02002828204E0828A4FF6DF731A403F
:102860008282704721B1828A42F01002828204E0A3
:10287000828A4FF6EF731A408282704721B1828AB2
:1028800042F00802828204E0828A4FF6F7731A400F
:102890008282704721B1828942F40042828103E042
:1028A0008289C2F30E028281704721B1828A42F48A
:1028B0000062828204E0828A4FF2FF731A408282B1
:1028C0007047828A4FF6FB731A408282828A0A43DB
:1028D0008282704721B1828A42F00202828204E041
:1028E000828A4FF6FD731A408282704702460020AA
:1028F000B1F5007F00D100BF13880B400BB1012060
:1029000000E00020704701F40072B2F5007F00D1B2
:1029100000BFCA430280704770B5024600240023FE
:102920000025002040F66A16B14200D100BFC1F375
:10293000421501F01F03012606FA03F3012D02D10F
:102940009689334006E0022D02D1168A334001E019
:10295000968A33400C12012606FA04F41688344095
:1029600013B10CB1012000E0002070BD10B50022B1
:10297000002340F66A14A14200D100BF0A120124CC
:102980009440A3B2DC43048010BD00000038014035
:102990000044004000480040004C0040005000400F
:1029A00000F080F94FF4A060FDF7DEFB00F03EFD83
:1029B00001F04CF800F002FB03F051FA19E000F0CE
:1029C00014FB012815D141020A48FEF7DCF803F098
:1029D0001DFBC4B200BF80210748FFF787FF002816
:1029E000F9D021460448FFF713FF214603A003F066
:1029F000D1FEE4E70020014000440040B7A2CBCD67
:102A0000B5C4CAFDBEDDCEAA3A25640A0D00000099
:102A1000704700BFFEE700BFFEE700BFFEE700BF54
:102A2000FEE77047704770470CB50020019000909A
:102A30006C48006840F480306A49086000BF69480B
:102A4000006800F4003000900198401C019000984C
:102A500018B90198B0F5A06FF1D16248006800F490
:102A6000003010B10120009001E00020009000989B
:102A7000012843D15C48006840F010005A490860C2
:102A80000846006820F0030008600846006840F02F
:102A90000200086053484068524948600846406850
:102AA00048600846406840F48060486008464068D6
:102AB00020F47C1048600846406840F4E810486004
:102AC0000846006840F08070086000BF4548006814
:102AD00000F000700028F9D04248406820F0030060
:102AE000404948600846406840F00200486000BF26
:102AF0003C48406800F00C000828F9D10CBD10B526
:102B0000FFF792FF10BD10B53648006840F0010095
:102B100034490860084640683449084031494860F3
:102B200008460068324908402E4908600846006897
:102B300020F4802008600846406820F4FE004860C9
:102B40004FF41F008860FFF7DAFF4FF0006029495B
:102B5000086010BD10B5002100200022214B5B68E9
:102B600003F00C0121B1042906D0082928D107E07F
:102B7000214B224C236027E01F4B204C236023E095
:102B8000184B5B6803F47010164B5B6803F48032DB
:102B9000022303EB904022B9194B4343174C2360A7
:102BA0000DE0104B5B6803F4003323B1144B434337
:102BB000124C236003E0104B4343104C236003E0AE
:102BC0000D4B0E4C236000BF00BF064B5B68C3F388
:102BD00003130C4CE15C094B1B68CB40074C236092
:102BE00010BD000000100240002002400000FFF86D
:102BF000FFFFF6FE08ED00E000127A00140000204E
:102C000000093D001800002000BF0100A0F10100F4
:102C1000FBD17047E148806940F00800DF498861D6
:102C2000DF48006820F47000DD490860084600684D
:102C300040F4401008607047D848806940F0400078
:102C4000D6498861D748006820F47000D5490860EB
:102C50000846006840F4401008607047CF4880691B
:102C600040F00400CD498861CF48006820F470002E
:102C7000CD4908600846006840F44010086070477D
:102C8000C648806940F00400C4498861C6480068AD
:102C900020F07060C44908600846006840F0407049
:102CA00008607047BD48806940F00800BB498861F2
:102CB000BB48006820F47000B94908600846006805
:102CC00040F440100860B548806940F04000B349C6
:102CD0008861B448006820F47000B2490860084672
:102CE000006840F440100860AC48806940F004007F
:102CF000AA498861AC48006820F47000AA490860BD
:102D00000846006840F440100860A448806940F01C
:102D10000400A2498861A448006820F07060A249BC
:102D200008600846006840F0407008609C480C301D
:102D3000006840F020009A490C31086099480C3036
:102D4000006840F0200097490C31086096480C302C
:102D5000006840F0200094490C3108600846006883
:102D600040F04000086070477FE08D480C300068FC
:102D700020F020008A490C3108608A480C30006835
:102D800040F0200087490C31086087480C3000680B
:102D900040F0200084490C3108600846006840F08B
:102DA000400008608148FFF72FFF7D480C30006825
:102DB00040F020007A490C3108607A480C300068F5
:102DC00020F0200077490C31086077480C3000680B
:102DD00040F0200074490C3108600846006840F05B
:102DE000400008607148FFF70FFF6D480C30006825
:102DF00040F020006A490C3108606A480C300068D5
:102E000040F0200067490C31086067480C300068CA
:102E100020F0200064490C3108600846006840F04A
:102E2000400008606148FFF7EFFE5D480C30006825
:102E300040F020005A490C3108605A480C300068B4
:102E400040F0200057490C31086057480C300068AA
:102E500040F0200054490C3108600846006820F01A
:102E6000400008605148FFF7CFFE7EE7002493E062
:102E7000002443E04A480C30006820F02000484914
:102E80000C31086047480C30006820F020004549AC
:102E90000C31086044480C30006820F020004249A2
:102EA0000C3108600846006820F0400008602046A9
:102EB000FFF7AAFE3A480C30006840F0200038497D
:102EC0000C31086037480C30006840F0200035496C
:102ED0000C31086034480C30006840F02000324962
:102EE0000C3108600846006840F04000086040F27D
:102EF000DC51081BFFF788FE601C84B240F2DC50F6
:102F00008442B7DB002443E025480C30006840F0E1
:102F1000200023490C31086022480C30006840F042
:102F2000200020490C3108601F480C30006840F038
:102F300020001D490C3108600846006840F0400040
:102F400008602046FFF760FE15480C30006820F04E
:102F5000200013490C31086012480C30006820F042
:102F6000200010490C3108600F480C30006820F038
:102F700020000D490C3108600846006820F0400030
:102F8000086040F2DC51081BFFF73EFE601C84B273
:102F900040F2DC508442B7DB6AE7000000100240D8
:102FA000000C0140001801400008014040420F00A1
:102FB00000BF0100A0F10100FBD1704708B501215D
:102FC0004420FEF7F1F90120ADF8000004208DF84F
:102FD00003006946FA48FDF729FD1C20ADF8000002
:102FE0006946F848FDF722FD08BD10B50121F448F7
:102FF000FDF7AFFD60B94FF47A70FFF7D9FF0121FB
:10300000EF48FDF7A6FDA0B90120EF49087010E0D8
:103010000821EC48FDF79DFD58B94FF47A70FFF791
:10302000C7FF0821E748FDF794FD10B90020E649E5
:103030000870E548007810BD10B50121E048FDF7A3
:1030400088FD70B94FF47A70FFF7B2FF0121DC48B8
:10305000FDF77FFD28B9DD48006820F02000DB493E
:1030600008600821D748FDF774FD70B94FF47A70F5
:10307000FFF79EFF0821D348FDF76BFD28B9D34821
:10308000006840F02000D14908601021CD48FDF7CC
:1030900060FD80B94FF47A70FFF78AFF1021C948AC
:1030A000FDF757FD38B9C7480C30006820F0200004
:1030B000C4490C3108600421C248FDF74AFD0128CB
:1030C00011D14FF47A70FFF773FF0421BD48FDF76B
:1030D00040FD012807D1BB480C30006840F02000BB
:1030E000B8490C31086010BD10B51021B548FDF786
:1030F00030FD58BB4FF47A70FFF75AFF1021B148EA
:10310000FDF727FD10BBB248006808B9012000E0B8
:103110000020AF4908600846006840B1A9480C305B
:10312000006820F02000A7490C31086007E0A5489E
:103130000C30006840F02000A2490C31086000BF4C
:103140001021A048FDF705FD0028F9D010BD10B5ED
:10315000FF24A048007820B101280BD0022824D1F8
:103160001AE001219648FDF7F4FC10B901209949B5
:1031700008701AE04FF47A70FFF71AFF01219048A7
:10318000FDF7E7FC20B9022092490870012402E013
:1031900000209049087008E001218948FDF7D9FC1A
:1031A00010B100208B49087000BF00BF204610BD41
:1031B00010B58948007820B101280BD0022839D1F8
:1031C0002FE001217E48FDF7C4FC10B9012082499F
:1031D000087000BF01217A48FDF7BBFCC0B97F48E9
:1031E0000068C0437D4908600846006830B17748F0
:1031F000006820F020007549086005E07348006809
:1032000040F020007149086002207349087007E00F
:1032100001216B48FDF79DFC10B100206E4908703C
:1032200000BF01216648FDF794FC10B100206A49F7
:10323000087000BF00BF10BD10B56948007820B10C
:1032400001280BD002283DD133E008215D48FDF76D
:1032500080FC10B901206249087000BF082159485C
:10326000FDF777FCE0B95F480068C0435D4908603E
:103270000846006840B153480C30006820F0200038
:1032800050490C31086007E04E480C30006840F0AF
:1032900020004C490C31086002205149087007E0B9
:1032A00008214848FDF755FC10B100204C49087032
:1032B00000BF08214348FDF74CFC10B100204849ED
:1032C000087000BF00BF10BD10B54748007820B19E
:1032D00001280BD002283DD133E010213948FDF7F9
:1032E00038FC10B901204049087000BF1021354852
:1032F000FDF72FFCE0B93D480068C0433B4908603A
:103300000846006840B12E480C30006820F02000CC
:103310002B490C31086007E029480C30006840F068
:10332000200027490C31086002202F49087007E06F
:1033300010212448FDF70DFC10B100202A49087027
:1033400000BF10211F48FDF704FC10B100202649E2
:10335000087000BF00BF10BD10B52548007820B12F
:1033600001280BD002285AD150E004211548FDF75E
:10337000F0FB10B101201E49087000BF0421114864
:10338000FDF7E7FBC0B31B480068C043194908605C
:103390000846006840B10A480C30006820F0400040
:1033A00007490C31086007E005480C30006840F020
:1033B000400003490C31086002200D49087024E0E8
:1033C0000008014000180140280000200C0C0140BA
:1033D0002C000020300000203800002034000020A5
:1033E000390000203C000020400000204400002064
:1033F000480000204C000020FFE704210948FDF7A9
:10340000A8FB10B900200849087000BF0421054836
:10341000FDF79FFB10B900200349087000BF00BFF3
:1034200010BD0000001801404800002000B585B024
:10343000012144F20400FDF7B7FF4FF40070ADF82E
:10344000000018208DF8030003208DF80200694663
:10345000F848FDF7EBFA4FF48060ADF80000042067
:103460008DF803006946F348FDF7E0FA4FF4E130C8
:1034700001900020ADF810000C20ADF80E000020E7
:10348000ADF80C00ADF80A00ADF8080001A9EA4853
:10349000FFF7C5F80121E848FFF74DF905B000BD79
:1034A00000B585B0012144F20900FDF77DFF01213F
:1034B0000420FDF78CFB4020ADF8100018208DF89B
:1034C000130003208DF8120004A9DC48FDF7AEFAC2
:1034D0008020ADF8100004208DF8130004A9D7480F
:1034E000FDF7A4FA4FF4E13000900020ADF80C0095
:1034F0000C20ADF80A000020ADF80800ADF8060079
:10350000ADF804006946CC48FFF789F80121CA48A4
:10351000FFF711F905B000BD00B587B0012144F2F5
:103520000400FDF741FF012240F22551C248FFF798
:103530000EF94FF48060ADF8080004208DF80B0000
:1035400002A9BC48FDF772FA4FF40070ADF808000C
:1035500018208DF80B0003208DF80A0002A9B54849
:10356000FDF764FA4FF4E13003900020ADF8180045
:103570000C20ADF816000020ADF81400ADF81200D4
:10358000ADF8100003A9AC48FFF749F80121AA489B
:10359000FFF7D1F825208DF8040001208DF80700F1
:1035A00000208DF8050001208DF8060001A8FCF729
:1035B000E0FD07B000BD70B504460D4600BF802198
:1035C0009D48FFF793F90028F9D0A1B29A48FFF778
:1035D0001FF9204670BD10B5002400BF2021964879
:1035E000FFF784F90028F9D09348FFF715F9C4B222
:1035F00021469148FFF70CF900BF80218E48FFF764
:1036000075F90028F9D010BD10B5FF2420218A4893
:10361000FFF76CF9012814D18748FFF7FDF8C4B211
:10362000214687A003F0B6F8312C05D14FF4807104
:103630008248FDF7A8FA04E04FF480717F48FDF757
:10364000A4FA10BD10B5FF2400BF20217A48FFF76F
:103650004DF90028F9D07848FFF7DEF8C4B2312CD4
:1036600008DD76480C30006820F0200073490C31EA
:10367000086007E071480C30006840F020006F4996
:103680000C31086010BD10B500BF20216A48FFF75B
:103690002DF90028F9D06848FFF7BEF8C1B2694893
:1036A00002680068401C674B1860674881541846E0
:1036B0000068022802D100201946086063A1624810
:1036C00002F0C8FC40B95D480C30006820F02000D2
:1036D0005A490C31086007E058480C30006840F047
:1036E000200056490C31086010BD10B5FF2400BF02
:1036F00020215148FFF7FAF80028F9D04E48FFF78B
:103700008BF8C4B221464C48FFF782F800BF8021F5
:103710004948FFF7EBF80028F9D010BD0EB500BFFF
:1037200020214548FFF7E2F80028F9D04248FFF78A
:1037300073F8C1B2464802680068401C444B1860E8
:103740000DF8021018460068032802D1002019461F
:10375000086040A1684602F07DFC20B94FF48071FA
:103760003648FDF710FA3CA1684602F073FC20B918
:103770004FF480713148FDF708FA0EBD3EB50024C4
:1037800000BF12E000BF20212B48FFF7AFF8002850
:10379000F9D02948FFF740F8C0B20DF804001DF831
:1037A000041027A002F0F6FF641C022CEAD32BA120
:1037B000684602F04FFC40B920480C30006820F009
:1037C00020001E490C3108608DE025A1684602F0FA
:1037D00041FC40B919480C30006840F020001749FE
:1037E0000C3108607FE01FA1684602F033FC30B95D
:1037F0001D48006820F020001B49086073E01BA1F1
:10380000684602F027FC30B91748006840F02000F5
:103810001549086067E016A1684602F01BFC40B934
:1038200004480C30006820F0200002490C31086088
:1038300059E01FE00008014000380140000C014041
:1038400025630000580000205500002031320000A0
:103850005C00002031323300343536003131000055
:1038600031300000323100000C18014032300000CD
:103870003331000046A1684602F0ECFB30B9454800
:10388000006840F02000434908602CE042A16846EF
:1038900002F0E0FB30B93F48006820F040003D49AD
:1038A000086020E03DA1684602F0D4FB30B93948F9
:1038B000006840F040003749086014E038A16846CD
:1038C00002F0C8FB28B94FF480713648FDF75BF968
:1038D00009E035A1684602F0BDFB20B94FF48071C4
:1038E0003048FDF752F93EBD10B530480078012848
:1038F00027D1AFF2A8012E4802F0ACFB70B94FF40B
:1039000080712848FDF732F940B94FF4807125489D
:10391000FDF739F900202549087012E025A1244857
:1039200002F098FB68B94FF480711E48FDF71EF94C
:10393000012806D101021B48FDF727F900201B4989
:10394000087010BD10B520211B48FEF7CFFF0128DD
:1039500004D140F225511848FFF708F81648FEF741
:103960005BFFC1B2154802780078401C134B1870F9
:103970000F48815418460078022805D101200B49D0
:103980000870002019460870FFF7AEFF10BD000058
:10399000333000000C0801403431000034300000A6
:1039A00035310000000C014035300000540000208B
:1039B0005100002031330000003801405000002049
:1039C0001FB501210420FDF7EFFC01210846FDF79A
:1039D000EBFC00210846FDF73FF90120ADF80C0093
:1039E00004208DF80F0003A91448FDF71FF80120EB
:1039F00001908DF80A0000208DF8080008208DF84D
:103A0000090001A8FCF72CFC06208DF8000001201D
:103A10008DF803008DF801008DF802006846FCF770
:103A2000A8FB1FBD10B50120FCF780FC012801D1C7
:103A3000FCF78DFC02A002F0ADFE10BD00080140B5
:103A4000B4A5B7A2D6D0B6CF0D0A000030B500BFDE
:103A50004821B1F1807F01D301201DE021F07F409A
:103A6000401E4FF0E022506150170F22002807DA65
:103A700013071D0E1E4B00F00F04241F1D5503E0FD
:103A800013071C0E1B4B1C5400BF00204FF0E022FC
:103A900090610720106100200128D9D04FF0E0206C
:103AA000006920F001004FF0E021086130BD1249AB
:103AB00008604FF0E021096941F001014FF0E02278
:103AC000116100BF0C4909680029FBD14FF0E021CA
:103AD000096921F001014FF0E022116170470648A9
:103AE000006820B104480068401E03490860704720
:103AF00018ED00E000E400E060000020002107E095
:103B000042F6E06100BF0A00A1F1010399B2FAD1C7
:103B10000200A0F10100F3D17047FE490880704710
:103B2000FC49891C08807047FA48801C008870474F
:103B3000F84A1080921C1180704710B50446204648
:103B4000FFF7EBFF0520FFF7B2FFFFF7EDFF10BD1A
:103B5000F148C079EF4908807047EE49891C088018
:103B6000704708B501210846FDF71EFC01214FF4FE
:103B7000B470FDF719FC10208DF8030003208DF8B8
:103B800002000120ADF800006946E448FCF74EFF52
:103B900003208DF8020018208DF803004CF203700A
:103BA000ADF800006946DE48FCF740FF4FF6807034
:103BB000ADF800006946DB48FCF738FF1020ADF88F
:103BC00000006946D648FCF731FF2020ADF8000020
:103BD0006946D348FCF72AFF4FF48050ADF8000047
:103BE0006946D148FCF722FF0120ADF80000694684
:103BF000CD48FCF71BFF08BD00B59DB001210802B0
:103C0000FDF7C5FB01200090002001900F200290DD
:103C100000200390049005900690079008900320E0
:103C2000099000200A900B900C900D9006200E90A9
:103C300000200F900820109010201190002012906A
:103C4000149015901390169018901A904FF480507D
:103C5000179080001990CDF86CD007A81C900EA882
:103C6000FCF7CAFB01210620FCF72EFD1DB000BDAC
:103C700010B53220FFF742FF01210020FFF758FF67
:103C80003220FFF73BFF0020FFF757FFA249888053
:103C900008468088FF280ADB084680884FF6FF71B7
:103CA000884204D09C488088B0F5134F22D1D3209D
:103CB000FFF733FFFFF738FFFFF736FFFFF734FF5B
:103CC00095498880084680884FF6FF7101EA0020F8
:103CD00091498880FFF728FF8F49898808438E49DA
:103CE00088800846808849F24131884202D00846DF
:103CF000894988808848808849F2413188427CD14E
:103D0000CF20FFF70AFF0020FFF70AFFC120FFF7CF
:103D100007FF3020FFF704FFED20FFF7FEFE6420D1
:103D2000FFF7FEFE0320FFF7FBFE1220FFF7F8FE71
:103D30008120FFF7F5FEE820FFF7EFFE8520FFF773
:103D4000EFFE1020FFF7ECFE7A20FFF7E9FECB2014
:103D5000FFF7E3FE3920FFF7E3FE2C20FFF7E0FE3C
:103D60000020FFF7DDFE3420FFF7DAFE0220FFF728
:103D7000D7FEF720FFF7D1FE2020FFF7D1FEEA2083
:103D8000FFF7CBFE0020FFF7CBFE0020FFF7C8FEB9
:103D9000C020FFF7C2FE1B20FFF7C2FEC120FFF7C5
:103DA000BCFE0120FFF7BCFEC520FFF7B6FE3020A9
:103DB000FFF7B6FE3020FFF7B3FEC720FFF7ADFEDA
:103DC000B720FFF7ADFE3620FFF7A7FE4820FFF72C
:103DD000A7FE3A20FFF7A1FE5520FFF7A1FEB12074
:103DE000FFF79BFE0020FFF79BFE1A20FFF798FECF
:103DF000B620FFF792FE0A2000E0A5E0FFF790FE54
:103E0000A220FFF78DFEF220FFF787FE0020FFF7CC
:103E100087FE2620FFF781FE0120FFF781FEE020CC
:103E2000FFF77BFE0F20FFF77BFE2A20FFF778FECF
:103E30002820FFF775FE0820FFF772FE0E20FFF71F
:103E40006FFE0820FFF76CFE5420FFF769FEA920E3
:103E5000FFF766FE4320FFF763FE0A20FFF760FED0
:103E60000F20FFF75DFE0020FFF75AFE0020FFF74E
:103E700057FE0020FFF754FE0020FFF751FEE1201F
:103E8000FFF74BFE0020FFF74BFE1520FFF748FE23
:103E90001720FFF745FE0720FFF742FE1120FFF72E
:103EA0003FFE0620FFF73CFE2B20FFF739FE562091
:103EB000FFF736FE3C20FFF733FE0520FFF730FE0C
:103EC0001020FFF72DFE0F20FFF72AFE3F20FFF7FF
:103ED00027FE3F20FFF724FE0F20FFF721FE2B20B7
:103EE000FFF71BFE0020FFF71BFE0020FFF718FE68
:103EF0000120FFF715FE3F20FFF712FE2A20FFF7F3
:103F00000CFE0020FFF70CFE0020FFF709FE00204A
:103F10000CE00000FE07006C08090020000C0140C6
:103F2000001401400018014000200140FFF7F8FD97
:103F3000EF20FFF7F5FD1120FFF7EFFD7820FFF7E9
:103F4000DDFD2920FFF7E9FD10BD00B502460B4657
:103F5000FD48808849F24131884213D1FA49087AF4
:103F6000FFF7DBFD1012FFF7DBFDD0B2FFF7D8FD46
:103F7000F549487AFFF7D1FD1812FFF7D1FDD8B205
:103F8000FFF7CEFD00BD70B504460026EE4805885B
:103F90004088454300210846FFF7D7FFFFF7D8FDCB
:103FA00000BF02E0E9480480761CAE42FAD370BD3F
:103FB00070B5044600230026E348807901281ED10D
:103FC000E148808846F60401884218D0082C15D2B2
:103FD000DFE804F00406080A0C0E101206240DE0B7
:103FE00007240BE0042409E0052407E0012405E090
:103FF000002403E0032401E0022400BF00BFD248F4
:10400000808849F24131884205D0CF48808846F601
:10401000040188427DD1082C1CD2DFE804F004069C
:10402000090C0F12151800BF14E043F0800311E0D3
:1040300043F040030EE043F0C0030BE043F02003E5
:1040400008E043F0600305E043F0A00302E043F022
:10405000E00300BF00BF362643F00803BA4880885B
:1040600046F60401884201D143F002031946304666
:10407000FFF75EFD03F0200018B9B34880790128EE
:104080000DD1B1480088B0494988884214DAAE4859
:1040900005884088AC490880084645800CE0AA485D
:1040A0000088A9494988884206DDA74805884088D4
:1040B000A549088008464580A349087AFFF72DFDE9
:1040C0000020FFF72DFD0020FFF72AFD9E490988FB
:1040D000491EC1F30F20FFF723FD9B490978491EB4
:1040E000C8B2FFF71DFD9849487AFFF716FD00207A
:1040F000FFF716FD0020FFF713FD93494988491E7D
:10410000C1F30F20FFF70CFD8F498978491EC8B213
:1041100000E001E0FFF704FD70BD10B5044644BBAC
:10412000002089498871F02008804FF4A0704880F1
:104130000846808849F24131884205D0824880880B
:1041400046F60401884229D12C207F49C8712A20D3
:1041500008722B2048720846808846F6040188427F
:104160001CD14FF4A070784908804FF4F07048805B
:1041700014E00120744988714FF4A0700880F02089
:1041800048800846808849F24131884206D12C2077
:104190006D49C8712A2008722B2048720020FFF751
:1041A00007FF10BD10B501216948FCF7ECFC10BDFC
:1041B00010B5FFF7D6FCFFF71FFDFFF759FDFFF71E
:1041C000F1FF0020FFF7A9FF4FF6FF70FFF7DBFEBE
:1041D00010BD70B505460E46144631462846FFF719
:1041E000B4FEFFF7B5FC5948048070BD2DE9F041DD
:1041F00004460D4600270026B04653480088A042DA
:1042000003DD51484088A84202DC0020BDE8F0816F
:1042100029462046FFF799FE4B48808849F24131F4
:10422000884202D12E20FFF778FC4848008800B170
:1042300000270220FFF762FC444807884248808834
:1042400049F2413188420AD10220FFF757FC3F482A
:10425000B0F80080FEB24FF6FF7000EA0626304646
:10426000D4E710B501213A48FCF78FFC10BD2DE9C9
:10427000FF4F074688469A46DDF83C9000262DE021
:10428000002423E00D9810F801BB0D9000251AE0E2
:104290000BF0800050B108EB060291B205EBC402AE
:1042A0003A4490B25246FFF794FF09E008EB060249
:1042B00091B205EBC4023A4490B2029AFFF789FF2B
:1042C0004FEA4B0B6D1C082DE2DB641C4FEAE971D1
:1042D00009EB5171B4EBE10FD4DB761C0E988642EA
:1042E000CEDBBDE8FF8F2DE9FE4306460F46904624
:1042F00099460A9D00245BE02878A02836DD00243A
:104300002DE0EB2E01D9002610372878114911F83D
:104310001410884222D16878012101EB44010D4A32
:10432000515C88421AD110210B48202303FB040062
:10433000CDE900014B464246029139463046FFF72F
:1043400096FF10360FE00000080900200008006CFE
:10435000000C0140F607002068000020641C00F0FB
:104360005AF9A042CDD800BFAD1C21E0E62E01D9FC
:1043700000261037002415E028789C49095D884202
:104380000FD1082110229A4802FB04004B46CDE9C8
:1043900001210090424639463046FFF768FF083653
:1043A00004E0641C00F02EF9A042E5D800BF6D1CAB
:1043B00028780028A0D1BDE8FE832DE9FE430546FC
:1043C0000E46174698460A9C23E06078A13821786B
:1043D000A139C1EB011202EB411100EB4100400198
:1043E00084490860202208460168834801F023FBC5
:1043F000EB2D01D90025103610207F4ACDE9002091
:1044000043463A46314602902846FFF730FF1035C2
:10441000A41C20780028D8D1BDE8FE832DE9FE43F6
:1044200005460F46904699460A9C002649E02078AA
:10443000A02824DD6078A1382178A139C1EB0112D0
:1044400002EB411100EB410040016A490860202263
:1044500008460168684801F0EEFAEB2D01D9002505
:1044600010371020644ACDE900204B4642463946B9
:1044700002902846FFF7FBFE1035A41C21E0E62D34
:1044800001D900251037002615E020785749895DAD
:1044900088420FD108211022554802FB06004B46E6
:1044A000CDE901210090424639462846FFF7DFFE5C
:1044B000083504E0761C00F0A5F8B042E5D800BF4E
:1044C000641C20780028B2D1BDE8FE832DE9F84FA6
:1044D00006460F4691469A46DDF828B04FF0000890
:1044E0003D461DE0344616E008F101001BF80000CF
:1044F0001BF8081040EA01200090F02C08DAB5F50E
:10450000A07F05DA009B9AB2A9B2A0B2FFF761FEC4
:1045100008F10208641C09EB0600A042E4DC6D1CF3
:104520000AEB0700A842DDDCBDE8F88F10B50246B3
:10453000014600E0491C0C78002CFBD1491E05E027
:1045400013780C7802F8014B01F801399142F7D841
:1045500010BD70B5044600250026261E00DA644210
:1045600000BF0A2094FBF0F100FB11403030C2B2D2
:1045700028466D1C21490A540A2094FBF0F4002CB3
:10458000EFDC002E03DA2D2228466D1C0A54002091
:104590001A4948550846FFF7C9FF70BD2DE9F04F8D
:1045A00005460E4617469846DDF824A04FF0000B4E
:1045B000781B401C1FFA80FB344613E02146284636
:1045C000FFF7C3FCFFF7C4FA4FF0000906E00C4800
:1045D000A0F800A009F101001FFA80F9D945F6DB27
:1045E000601C84B24445E9DDBDE8F08F98070020E7
:1045F000C8010020640000201209002032090020B8
:104600000008006C084A00E0491C12F8013B002B2E
:10461000FAD1481E7047054900E0521C11F8013BD1
:10462000002BFAD15008704798070020F6070020A9
:1046300000B585B001210820FCF7B6FE01218805F0
:10464000FCF7BFFE4FF44060ADF810001C208DF861
:10465000130002208DF8120004A9D048FCF7E6F9F7
:104660004FF48060ADF80A000001ADF80C00CC48B2
:1046700000904FF48040ADF806000020ADF8040033
:104680000A20ADF808006946C648FCF736FB012150
:10469000C448FCF7B0FB05B000BD2DE9F04105466C
:1046A000884616461F4600BF4FF40031BD48FCF750
:1046B000C9FC0028F8D10121BA48FCF7C0FB00BFB3
:1046C000B949B848FCF79CFC0128F9D100222946D9
:1046D000B448FCF70AFC00BFB449B248FCF790FCB0
:1046E0000128F9D14146AF48FCF7F9FB00BFAF49BB
:1046F000891EAC48FCF784FC0128F8D100240DE0A9
:10470000315DA848FCF7EBFB00BFA849891EA5480E
:10471000FCF776FC0128F8D1601C84B2BC42EFDBC8
:104720000121A048FCF797FBBDE8F0812DE9F0419D
:104730000646884615461F4600BF4FF4003199488B
:10474000FCF780FC0028F8D101219648FCF777FBA4
:1047500000BF95499348FCF753FC0128F9D100228A
:1047600031469048FCF7C1FB00BF90498D48FCF7EB
:1047700047FC0128F9D141468A48FCF7B0FB00BF4D
:104780008A49891E8748FCF73BFC0128F8D10121A2
:104790008448FCF754FB00BF83498248FCF730FC97
:1047A0000128F9D1012231467E48FCF79EFB00BF6B
:1047B0007D49491C7B48FCF723FC0128F8D10024E3
:1047C0000DE000BF78493F317648FCF719FC01281D
:1047D000F8D17448FCF785FB2855601C84B2781E1C
:1047E000A042EEDC00216F48FCF741FB00BF6E49A0
:1047F0003F316C48FCF704FC0128F8D16948FCF70C
:1048000070FB285501216748FCF725FB012165480D
:10481000FCF72DFBBDE8F08170B5044600260DE0E5
:10482000002505E014F8011B61A001F0B3FF6D1C29
:10483000102DF7DB5FA001F0ADFF761C102EEFDB33
:1048400070BD0246002003E000231354431C98B2BD
:104850008842F9DB704710B5C0B057A001F09AFF4D
:10486000002404E000200DF80400601C84B2FF2C3A
:10487000F8DD6846FFF7D0FF53A001F08BFF56A08C
:1048800001F088FF00240FE00DEB0402E1B20123E8
:10489000A020FFF702FF55A001F07CFF4CF2503042
:1048A000FFF705F9601C84B2FF2CEDDD50A001F08C
:1048B00071FF4FF480716846FFF7C3FF50A001F00D
:1048C00069FF4FF480736A460021A020FFF72EFF96
:1048D0004FA001F05FFF6846FFF79EFF50A001F078
:1048E00059FF40B010BD70B5CAB0002600250120A8
:1048F00041904F48006842904E48006843904E48AF
:10490000006844904D48006845904D4800684690C6
:104910004C48006847904C480068489026A001F039
:1049200039FF29A001F036FF2BA001F033FF00BFB3
:104930001BE041A850F825004990002411E049A847
:104940000219F1B20123A020FFF7A7FE27A001F072
:1049500021FF4CF25030FFF7AAF8701C86B2601CA1
:1049600084B2042CEBDB681C85B2082DE1DB20A0AF
:1049700001F010FF22A001F00DFF012301AA002188
:10498000A020FFF7D3FE22A001F004FF01A8FFF74B
:1049900043FF23A001F0FEFE4AB070BD000C0140B1
:1049A000400D030000580040010003008200070092
:1049B000257809000A0D000049494332B2E2CAD401
:1049C000BFAACABC0A0D0000BFAACABCD0B4B2D9E3
:1049D000D7F70A0D00000000D5FDD4DAD0B4B2D963
:1049E000D7F72E2E2E2E2E0A0D0000006F6B090019
:1049F000D0B4B2D9D7F7CDEAB3C90A0D0000000090
:104A0000B6C1B2D9D7F7BFAACABC0A0D00000000D0
:104A1000B6C1B2D9D7F7CDEAB3C90A0D000000007C
:104A2000494943B2D9D7F7CDEAB3C90A0D0000000E
:104A3000C4080020C8080020CC080020D0080020AE
:104A4000D4080020D8080020DC0800203EB5044629
:104A50000D4601211020FCF7B4FC0020ADF8060043
:104A6000ADF80200ADF80450ADF800408DF8080034
:104A70006946DD48FCF756FF01221146DA48FDF78A
:104A8000C8FA0121D848FDF7A9FAD7488089002043
:104A9000D54988813EBD08B536208DF8000001203B
:104AA0008DF803008DF801008DF802006846FBF7D1
:104AB00060FB08BD10B50121CB48FDF758FD01286A
:104AC00008D10121C848FDF763FDC8480068401CB3
:104AD000C649086010BD1FB5C5480068401CC449E0
:104AE000086008460068642807D1C2480068401C76
:104AF000C04908600020BE490860BE4800683C28E4
:104B000007D1BD480068401CBB4908600020B94976
:104B100008600A2202A9B748006800F03DFA0A229C
:104B200003A9B548006800F037FA0A2201A9B04885
:104B3000006800F031FA4FF6FF70FFF724FA01A881
:104B400000234FF6FF724FF4917100908C20FFF715
:104B5000CAFB02A800234FF6FF724FF49171009038
:104B60007820FFF7C0FB03A800234FF6FF724FF435
:104B7000917100906420FFF7B6FB1FBD00B587B0B0
:104B80009A48006841F27071B0FBF1F00A21B0FB65
:104B9000F1F0C0B28DF810009448006841F27071D5
:104BA000B0FBF1F0C0B28DF8110090480068B0FB86
:104BB000F1F201FB12006421B0FBF1F00A21B0FB1D
:104BC000F1F0C0B28DF814008848006841F27071AD
:104BD000B0FBF1F201FB12006421B0FBF1F00A21FD
:104BE000B0FBF1F201FB12008DF815007F48006860
:104BF00041F27071B0FBF1F201FB12006421B0FBD5
:104C0000F1F201FB12000A21B0FBF1F08DF818005F
:104C10007648006841F27071B0FBF1F201FB1200BE
:104C20006421B0FBF1F201FB12000A21B0FBF1F2AA
:104C300001FB12008DF81900082110229DF81000C8
:104C40006E4B03EB00104FF6FF73CDE9012100908E
:104C500000224FF496716420FFF709FB082110220F
:104C60009DF81100654B03EB00104FF6FF73CDE983
:104C70000121009000224FF496716E20FFF7F7FAA1
:104C8000082110229DF814005C4B03EB00104FF636
:104C9000FF73CDE90121009000224FF49671782036
:104CA000FFF7E5FA082110229DF81500534B03EB9E
:104CB00000104FF6FF73CDE90121009000224FF460
:104CC00096718220FFF7D3FA082110229DF8180070
:104CD0004A4B03EB00104FF6FF73CDE90121009022
:104CE00000224FF496718C20FFF7C1FA08221021A0
:104CF0009DF81900414B03EB00104FF6FF738DE850
:104D0000070000224FF496719620FFF7B0FA07B023
:104D100000BD7CB54FF480613948FBF71AFF88BBB2
:104D200042F21070FEF7C3FE4FF480613448FBF787
:104D300010FF38BB694601A800F01EF93148006831
:104D4000BDF80410484330490968BDF8002001FB54
:104D500002002E49096808442D49096890FBF1F4C6
:104D60002C480068BDF8041048432B490968BDF879
:104D7000002001FB02002949096808442449096808
:104D800090FBF1F56E2C09DC502C07DBF02D05DBD8
:104D9000B5F58C7F02DC002014490860A02C21DCD2
:104DA000822C1FDBF02D1DDBB5F58C7F1ADC1C4837
:104DB000006808B9012000E0002019490860084691
:104DC000006828B90848808900200749888109E0DF
:104DD00013480068012805D10348808940F001008C
:104DE000014988817CBD00000010004010080020AF
:104DF0001C080020180800201408002020080020AB
:104E0000001C0140C4080020C8080020CC08002075
:104E1000DC080020D0080020D4080020D80800209A
:104E2000C0080020002107E042F6E06100BF0A0050
:104E3000A1F1010399B2FAD10200A0F10100F3D16E
:104E4000704708B501218820FCF7AEFA10208DF8D4
:104E5000030003208DF802000620ADF8000069462B
:104E6000FE48FBF7E3FD4FF40070ADF80000694623
:104E7000FB48FBF7DBFD4FF4A060ADF80000042019
:104E80008DF803006946F648FBF7D0FD08BD70B504
:104E90000446002518E00221F048FBF776FE0221C7
:104EA000EE48FBF770FE20884FF6FF7101EA4000E4
:104EB00020804FF48071EA48FBF74BFE10B1208848
:104EC000401C2080681C85B2102DE4DB70BD70B5DD
:104ED0000446002580260221E048FBF756FE00BF6D
:104EE00019E004EA060028B14FF40071DC48FBF732
:104EF0004AFE04E04FF40071D948FBF746FE022158
:104F0000D648FBF740FE0221D448FBF73EFE600680
:104F1000040E681C85B2082DE3DB70BD38B504466D
:104F20000421CE48FBF731FE0221CC48FBF72DFED1
:104F30004FF40071CA48FBF728FE2046FFF7C7FF71
:104F40000A20FEF7B4FD0221C448FBF71EFE012033
:104F5000FEF7ADFD0221C148FBF715FE6846FFF7DD
:104F600096FFBDF80000001100900421BB48FBF73C
:104F70000AFEBDF8000038BD2DE9F04104460D469B
:104F8000D020FFF7CBFF06469020FFF7C7FF07466C
:104F900026802F80BDE8F0812DE9F04786B00546D8
:104FA0000E4690461422AFA101A801F041F8344604
:104FB0000027BA4635B9302004F8010B304606B058
:104FC000BDE8F087002D05DA2D2004F8010B6D42B5
:104FD0004FF0010A09E095FBF8F008FB105001A919
:104FE000085C04F8010B95FBF8F5002DF3D1BAF13C
:104FF000000F01D0701C00E030460746641E07E039
:1050000097F800902078387084F800907F1C641E18
:10501000A742F5D33046D2E700B589B096A207CAB9
:1050200006AB07C397A207CA03AB07C300BF4FF481
:1050300080618B48FBF78DFD0028F8D101A902A8FB
:10504000FFF79AFF0A220DF11A01BDF80800FFF7D9
:10505000A3FF0A220DF10E01BDF80400FFF79CFF2B
:1050600006A84FF6FF734FF4784278210090142081
:10507000FFF739F903A84FF6FF734FF47842A021E8
:1050800000901420FFF72FF909B000BD2DE9FE4371
:1050900005460E4600241CE0291988B24FF6E0723E
:1050A0003146FFF796F8291B88B24FF6E072314679
:1050B000FFF78FF8301981B24FF6E0722846FFF7FC
:1050C00088F8301B81B24FF6E0722846FFF781F86E
:1050D000641C0A2CE0D300BF4FF480616048FBF7EA
:1050E00038FD0028F8D101A902A8FFF745FF68485C
:1050F0000068BDF80810484366490968BDF80420F7
:1051000001FB02006449096808446449096890FB8E
:10511000F1F763480068BDF8081048436149096821
:10512000BDF8042001FB02005F49096808445B499F
:10513000096890FBF1F805F10A0087421CDA14387F
:10514000B84219DAA6F10A00404515DA1430804554
:1051500012DA56A04FF6FF734FF47842F021009018
:105160005020FFF7C0F85448FEF7A1FC1F20FEF7BF
:105170000AFF0120BDE8FE8300BF4FF4806138487C
:10518000FBF7E7FC0028F8D04CA04FF6FF734FF474
:105190007842F02100901420FFF7A5F84648FEF76A
:1051A00086FC1F20FEF7EFFE0020E3E730B58BB052
:1051B000494A07CA08AB07C3474A0C32D2E9001074
:1051C0009268CDE906020591002400BF002496E014
:1051D000002534E005AA32F8242091B208AA32F85A
:1051E00024202A4490B24FF47842FEF7F2FF05AA39
:1051F00032F8242091B208AA32F82420521B90B22F
:105200004FF47842FEF7E5FF05AA32F824202A443D
:1052100091B208AA32F8242090B24FF47842FEF7F7
:10522000D8FF05AA32F82420521B91B208AA32F8FE
:10523000242090B24FF47842FEF7CBFF6D1C052D71
:10524000C8DB00BF4FF480610548FBF782FC0028F3
:10525000F8D101AA02EB440103AA3FE0000C01408F
:10526000001C014030313233343536373839414251
:105270004344454600000000783D202020202020A7
:1052800020000000793D2020202020202000000068
:10529000C4080020C8080020CC080020DC0800203A
:1052A000D0080020D4080020D808002041646A7586
:1052B0007374204F4B00000080841E0041646A75A7
:1052C0007374206572726F722C506C61636520611B
:1052D0006761696E000000006870000802EB44001E
:1052E000FFF74AFE4FF49670FFF79CFD00BF4FF4A6
:1052F0008061FA48FBF72DFC0028F8D0641C032CD1
:10530000FFF466AFBDF80C00BDF81010401ABDF8F0
:105310000610BDF80820891A4843BDF80E10BDF8E4
:105320001020891ABDF80420BDF80830D21A01FBFC
:105330001200EB4908600A990898401ABDF8061057
:10534000BDF80820891A4843DDE90912891ABDF819
:105350000420BDF80830D21A01FB1200E1490860B0
:10536000BDF80C00BDF81010401ADDE90912891AC9
:1053700048430899891ABDF80E20BDF81030D21A9A
:1053800001FB1200D8490860BDF810000999484394
:10539000BDF80E100A9A01FB1200BDF80410484334
:1053A000BDF80C105143BDF81020089B02FB1311EF
:1053B000BDF8062002FB0101BDF80E005843BDF800
:1053C0000C20099B02FB1300BDF8082002FB001013
:1053D000C649086007990598401ABDF80610BDF83F
:1053E0000820891A4843DDE90612891ABDF804200D
:1053F000BDF80830D21A01FB1200BD490860BDF8A3
:105400000C00BDF81010401ADDE90612891A484355
:105410000599891ABDF80E20BDF81030D21A01FB8B
:105420001200B4490860BDF8100006994843BDF861
:105430000E10079A01FB1200BDF804104843BDF896
:105440000C105143BDF81020059B02FB1311BDF851
:10545000062002FB0101BDF80E005843BDF80C20E8
:10546000069B02FB1300BDF8082002FB0010A249B6
:1054700008609C480068A14908609B480068486033
:105480009A48006888609A480068C860994800682F
:105490000861994800684861914800688861A021C6
:1054A0007820FFF7F3FD00B990E60BB030BD30B5C2
:1054B00089B09349D1E900028968CDE907210690B6
:1054C0008F4A0C3207CA03AB07C34FF4806183488D
:1054D000FBF73FFB002848D101A902A8FFF74CFDCC
:1054E00080480068BDF8081048437F490968BDF846
:1054F000042001FB02007D490968084478490968D5
:1055000090FBF1F47A480068BDF8081048437949E7
:105510000968BDF8042001FB0200774909680844C6
:105520006F49096890FBF1F50A220DF11A01204636
:10553000FFF732FD0A220DF10E012846FFF72CFD80
:1055400006A84FF6FF734FF47842F0210090142024
:10555000FEF7C9FE03A84FF6FF734FF478424FF4ED
:10556000827100901420FEF7BEFE09B030BD1CB55C
:105570006448007820B101283BD0022851D146E090
:105580004FF480615548FBF7E4FA80BB01205D4988
:105590000870694601A8FFF7EFFC52480068BDF8A3
:1055A0000410484350490968BDF8002001FB02007F
:1055B0004E49096808444A49096890FBF1F052498C
:1055C00008604B480068BDF8041048434949096821
:1055D000BDF8002001FB0200474909680844404922
:1055E000096890FBF1F04849486008461CBDFFE798
:1055F00017E04FF480613948FBF7ABFA18B9022085
:105600004049087002E000203E49087009E04FF46C
:1056100080613248FBF79DFA10B1002039490870CB
:1056200000BF00BF0020E1E710B588B00020009067
:1056300000BFFFF7BBFD002406E0304850F824000F
:1056400001A941F82400641C072CF6DB082410E0B3
:10565000A4F1080001ABC218E1B20123A020FFF7BA
:105660001CF84CF25030FEF722FA28A001F092F814
:10567000641C242CECDB0120009001236A460021ED
:10568000A020FFF70AF84CF25030FEF710FA20A0E5
:1056900001F080F801236A460021A020FFF746F8B8
:1056A00021A001F077F89DF80000012800D0C0E7A4
:1056B00008B010BD00B589B000BF012308AA0021C1
:1056C000A020FFF733F89DF82000012838D11C23D3
:1056D00001AA0821A020FFF729F834E0001C0140AE
:1056E000DC080020C4080020C8080020CC080020E6
:1056F000D0080020D4080020D80800204809002045
:1057000080700008E8080020E00800206F6B0A00A5
:1057100061646A7573742077696C6C20726561646A
:10572000212121212121000061646A75737420699F
:10573000732072656164696E672121212121210036
:10574000FFF772FFB9E70B49019808600A49029810
:1057500008600A49039808600949049808600949E3
:105760000598086008490698086008490798086085
:1057700009B000BDC4080020C8080020CC080020E3
:10578000D0080020D4080020D8080020DC08002021
:1057900000B587B001210820FBF706FE0121880330
:1057A000FBF70FFE4FF42040ADF8180018208DF8DD
:1057B0001B0003208DF81A0006A9F448FBF736F900
:1057C0004FF48050ADF8180010208DF81B00032016
:1057D0008DF81A0006A9ED48FBF728F94FF4804030
:1057E000ADF8180004208DF81B0006A9E748FBF768
:1057F0001DF90020ADF804004FF48270ADF80600EA
:105800000020ADF80800ADF80A00ADF80C004FF428
:105810000070ADF80E003020ADF810000020ADF89B
:1058200012000720ADF8140001A9D948FBF746FE85
:105830000121D748FBF7E7FE07B000BD10B50446CD
:1058400000BF0221D248FBF762FF0028F9D02146B1
:10585000CF48FBF709FF00BF0121CD48FBF757FFF9
:105860000028F9D0CA48FBF701FFC0B210BD10B53F
:105870004FF48051C548FBF788F90620FFF7DEFF9B
:105880004FF48051C148FBF77EF910BD10B50024DC
:105890004FF48051BD48FBF778F90520FFF7CEFFA4
:1058A00000BFFF20FFF7CAFF044604F001000028F4
:1058B000F7D14FF48051B548FBF765F910BD70B5CD
:1058C00005460C461646FFF7D2FF4FF48051AF480D
:1058D000FBF75BF90220FFF7B1FFC4F30740FFF7C6
:1058E000ADFFC4F30720FFF7A9FFE0B2FFF7A6FF63
:1058F00003E02878FFF7A2FF6D1C3000A6F101013C
:105900008EB2F6D14FF48051A048FBF73CF9FFF777
:10591000BDFF70BD2DE9F05F07460E4614464FF0FF
:105920000008C146C2460025AB4606F0FF0ACAF190
:105930000000C5B22046E11704EB1161C1F307284E
:10594000E11704EB11610912A4EB012101F0FF0939
:10595000BAF1000F20D1B8F1000F05D1224631462F
:105960003846FFF7ACFF64E009E04FF4807231463F
:105970003846FFF7A4FF06F5807607F580775FEAE3
:105980000800A8F1010101F0FF08EED14A463146B6
:105990003846FFF794FF4CE0B8F1000F18D1A94545
:1059A00010DDA9EB050000F0FF0B2A463146384612
:1059B000FFF785FF2E442F445A4631463846FFF7FD
:1059C0007EFF36E0224631463846FFF778FF30E06A
:1059D000601B84B22046E11704EB1161C1F3072874
:1059E000E11704EB11610912A4EB012101F0FF0999
:1059F0002A4631463846FFF762FF2E442F4409E01D
:105A00004FF4807231463846FFF759FF06F580762D
:105A100007F580775FEA0800A8F1010101F0FF08AF
:105A2000EED1B9F1000F04D04A4631463846FFF7AF
:105A300046FFBDE8F09F70B505460C4616464FF48C
:105A400080515248FBF7A1F80320FFF7F7FEC4F39B
:105A50000740FFF7F3FEC4F30720FFF7EFFEE0B2C5
:105A6000FFF7ECFE04E0FF20FFF7E8FE28706D1C56
:105A70003000A6F101018EB2F5D14FF480514348B8
:105A8000FBF781F870BD2DE9F041002400250026C8
:105A900000274FF480513D48FBF777F89F20FFF730
:105AA000CDFEFF20FFF7CAFE0546FF20FFF7C6FE2A
:105AB0000646FF20FFF7C2FE07464FF480513348E9
:105AC000FBF761F8280440EA062040EA0704204674
:105AD000BDE8F08110B50446FFF7C9FE4FF48051D0
